S00D000070617274312E737265632F
S113000094809FE5007098E5016047E20000A0E35A
S1130010049088E2000050E30000000A120000EAA5
S1130020000056E30100A003F9FFFF0A0650A0E117
S1130030049088E2010000EA016046E2F7FFFFEA6B
S1130040000055E3F5FFFF0A04A089E2002099E5CA
S113005000309AE5030052E1003089B500208AB5EA
S11300600A90A0E1015045E2F4FFFFEAFEFFFFEA37
S11300700A000000780500002D00000017000000B1
S1130080050000000300000008000000110000004B
S113009004000000140000002100000070000000B3
S11300A0000000000000000000000000B800000094
S10B00B0000000000000000044
S9030000FC
